{
  "contractName": "vote_contract",
  "abi": [
    {
      "anonymous": false,
      "inputs": [
        {
          "indexed": false,
          "internalType": "address",
          "name": "voter",
          "type": "address"
        },
        {
          "indexed": false,
          "internalType": "string",
          "name": "candidate",
          "type": "string"
        }
      ],
      "name": "Vote",
      "type": "event"
    },
    {
      "inputs": [
        {
          "internalType": "address",
          "name": "_voter",
          "type": "address"
        },
        {
          "internalType": "string",
          "name": "_candidate",
          "type": "string"
        }
      ],
      "name": "vote",
      "outputs": [],
      "stateMutability": "nonpayable",
      "type": "function"
    },
    {
      "inputs": [
        {
          "internalType": "string",
          "name": "_candidate",
          "type": "string"
        }
      ],
      "name": "getVote",
      "outputs": [
        {
          "internalType": "uint256",
          "name": "",
          "type": "uint256"
        }
      ],
      "stateMutability": "view",
      "type": "function",
      "constant": true
    }
  ],
  "bytecode": "0x608060405234801561001057600080fd5b50610626806100206000396000f3fe608060405234801561001057600080fd5b50600436106100365760003560e01c80631bf533a41461003b578063baa40e5c14610057575b600080fd5b61005560048036038101906100509190610344565b610087565b005b610071600480360381019061006c91906103a4565b61024a565b60405161007e919061040a565b60405180910390f35b60001515600160008573ffffffffffffffffffffffffffffffffffffffff1673ffffffffffffffffffffffffffffffffffffffff16815260200190815260200160002060009054906101000a900460ff1615151461011a576040517f08c379a000000000000000000000000000000000000000000000000000000000815260040161011190610482565b60405180910390fd5b6000828260405161012c9291906104e1565b9081526020016040518091039020839080600181540180825580915050600190039060005260206000200160009091909190916101000a81548173ffffffffffffffffffffffffffffffffffffffff021916908373ffffffffffffffffffffffffffffffffffffffff16021790555060018060008573ffffffffffffffffffffffffffffffffffffffff1673ffffffffffffffffffffffffffffffffffffffff16815260200190815260200160002060006101000a81548160ff0219169083151502179055506002600081548092919061020590610529565b91905055507fc8890be6e657dc734d1fb91641621bd1bc2bf263edd04e4198b4db572cc680f683838360405161023d939291906105be565b60405180910390a1505050565b600080838360405161025d9291906104e1565b908152602001604051809103902080549050905092915050565b600080fd5b600080fd5b600073ffffffffffffffffffffffffffffffffffffffff82169050919050565b60006102ac82610281565b9050919050565b6102bc816102a1565b81146102c757600080fd5b50565b6000813590506102d9816102b3565b92915050565b600080fd5b600080fd5b600080fd5b60008083601f840112610304576103036102df565b5b8235905067ffffffffffffffff811115610321576103206102e4565b5b60208301915083600182028301111561033d5761033c6102e9565b5b9250929050565b60008060006040848603121561035d5761035c610277565b5b600061036b868287016102ca565b935050602084013567ffffffffffffffff81111561038c5761038b61027c565b5b610398868287016102ee565b92509250509250925092565b600080602083850312156103bb576103ba610277565b5b600083013567ffffffffffffffff8111156103d9576103d861027c565b5b6103e5858286016102ee565b92509250509250929050565b6000819050919050565b610404816103f1565b82525050565b600060208201905061041f60008301846103fb565b92915050565b600082825260208201905092915050565b7f74686520766f7465722068617320616c726561647920766f7465640000000000600082015250565b600061046c601b83610425565b915061047782610436565b602082019050919050565b6000602082019050818103600083015261049b8161045f565b9050919050565b600081905092915050565b82818337600083830152505050565b60006104c883856104a2565b93506104d58385846104ad565b82840190509392505050565b60006104ee8284866104bc565b91508190509392505050565b7f4e487b7100000000000000000000000000000000000000000000000000000000600052601160045260246000fd5b6000610534826103f1565b91507fffffffffffffffffffffffffffffffffffffffffffffffffffffffffffffffff8203610566576105656104fa565b5b600182019050919050565b61057a816102a1565b82525050565b6000601f19601f8301169050919050565b600061059d8385610425565b93506105aa8385846104ad565b6105b383610580565b840190509392505050565b60006040820190506105d36000830186610571565b81810360208301526105e6818486610591565b905094935050505056fea2646970667358221220b8a5cd4b020ecd2854c2e27af343b8e123505e9d90c6230d35933389ea358f8764736f6c63430008100033",
  "immutableReferences": {},
  "source": "// SPDX-License-Identifier: MIT\npragma solidity >=0.4.22 <0.9.0;\n\ncontract vote_contract {\n  mapping(string => address[]) candidateVotes;\n  mapping(address => bool) alreadyVote;\n  uint256 totalVotes ;\n  event Vote(address voter, string candidate);\n  function vote(address _voter, string calldata _candidate) external {\n        require(alreadyVote[_voter] == false, \"the voter has already voted\");\n        \n        candidateVotes[_candidate].push(_voter);\n        alreadyVote[_voter] = true;\n        totalVotes++;\n        emit Vote(_voter, _candidate);\n    }\n\n    function getVote(string calldata _candidate)\n        external\n        view\n        returns (uint256)\n    {\n        return candidateVotes[_candidate].length;\n    }\n  }\n\n",
  "sourcePath": "C:\\Users\\fatih\\Downloads\\SDD\\BlockchainV\\server\\contracts\\vote_contract.sol",
  "compiler": {
    "name": "solc",
    "version": "0.8.16+commit.07a7930e.Emscripten.clang"
  },
  "schemaVersion": "3.4.9",
  "updatedAt": "2022-09-13T20:53:50.276Z",
  "networkType": "ethereum",
  "devdoc": {
    "kind": "dev",
    "methods": {},
    "version": 1
  },
  "userdoc": {
    "kind": "user",
    "methods": {},
    "version": 1
  }
}